:020000040800F2
:100000000000012051340008C1160008C316000882
:10001000C5160008C7160008C91600080000000031
:10002000000000000000000000000000C1310008D6
:10003000CB16000800000000F1310008553200081E
:10004000A1340008A1340008A1340008A13400083C
:10005000A1340008A1340008A1340008A13400082C
:10006000A1340008A1340008A1340008A13400081C
:10007000A1340008A1340008A1340008A13400080C
:10008000A1340008A1340008A1340008A1340008FC
:10009000A1340008A1340008A1340008A1340008EC
:1000A000A1340008A1340008CD160008A1340008CE
:1000B000A1340008A1340008A1340008A1340008CC
:1000C000A1340008A1340008A1340008A1340008BC
:1000D000A1340008A1340008A1340008A1340008AC
:1000E000A1340008A1340008A1340008A13400089C
:1000F000A1340008A1340008A1340008A13400088C
:10010000A13400080000000000000000A134000835
:10011000A1340008A1340008A1340008A13400086B
:10012000A1340008A1340008A1340008A13400085B
:10013000A1340008A1340008000000000000000005
:10014000A1340008A1340008A13400080000000018
:10015000000000000000000000000000000000009F
:10016000A1340008A1340008A1340008A13400081B
:10017000A1340008A1340008A1340008A13400080B
:10018000A1340008A13400080000000000000000B5
:04019000A13400088E
:1001C0000348044B834202D0034B03B118477047E6
:1001D0007000002070000020000000000548064963
:1001E0000B1AD90F01EBA301491002D0034B03B145
:1001F00018477047700000207000002000000000C9
:1002000010B5064C237843B9FFF7DAFF044B13B15E
:100210000448AFF300800123237010BD700000205C
:1002200000000000A434000808B5044B1BB10449C9
:100230000448AFF30080BDE80840CFE700000000AD
:1002400074000020A434000870B50D4E0D4D761BCF
:10025000B61006D00024013455F8043B9847A64256
:10026000F9D1094E094D761B03F01CF9B61006D0E2
:100270000024013455F8043B9847A642F9D170BDDB
:1002800028360008283600082C36000828360008D2
:10029000844641EA000313F003036DD1403A41D391
:1002A00051F8043B40F8043B51F8043B40F8043B50
:1002B00051F8043B40F8043B51F8043B40F8043B40
:1002C00051F8043B40F8043B51F8043B40F8043B30
:1002D00051F8043B40F8043B51F8043B40F8043B20
:1002E00051F8043B40F8043B51F8043B40F8043B10
:1002F00051F8043B40F8043B51F8043B40F8043B00
:1003000051F8043B40F8043B51F8043B40F8043BEF
:1003100051F8043B40F8043B51F8043B40F8043BDF
:10032000403ABDD2303211D351F8043B40F8043B7F
:1003300051F8043B40F8043B51F8043B40F8043BBF
:1003400051F8043B40F8043B103AEDD20C3205D38F
:1003500051F8043B40F8043B043AF9D2043208D087
:10036000D2071CBF11F8013B00F8013B01D30B88F9
:1003700003806046704700BF082A13D38B078DD0D7
:1003800010F003038AD0C3F10403D21ADB071CBFA9
:1003900011F8013B00F8013B80D331F8023B20F813
:1003A000023B7BE7043AD9D3013A11F8013B00F84C
:1003B000013BF9D20B7803704B7843708B788370D4
:1003C00060467047F0B4860746D0541E002A3CD0E1
:1003D000CAB2034602E014F1FF3436D303F8012B0E
:1003E0009D07F8D1032C29D9CDB245EA05250F2C5C
:1003F00045EA054533D9A4F11006360903F1200773
:1004000007EB061703F1100242E9045542E90255D1
:100410001032BA42F8D1721C14F00C0F03EB021226
:1004200004F00F0613D0331F23F0030304331344E7
:1004300042F8045B9342FBD106F003042CB1C9B22D
:100440001C4403F8011B9C42FBD1F0BC70473446AE
:100450001346002CF3D1F8E714460346C2E71A46C8
:100460002646E0E700000000000000000000000059
:10047000000000000000000000000000000000007C
:1004800090F800F06DE9024520F007016FF0000CD4
:1004900010F0070491F820F040F049804FF000047C
:1004A0006FF00700D1E9002391F840F000F1080057
:1004B00082FA4CF2A4FA8CF283FA4CF3A2FA8CF38F
:1004C0004BBBD1E9022382FA4CF200F10800A4FAF6
:1004D0008CF283FA4CF3A2FA8CF3E3B9D1E904234A
:1004E00082FA4CF200F10800A4FA8CF283FA4CF381
:1004F000A2FA8CF37BB9D1E9062301F1200182FA3B
:100500004CF200F10800A4FA8CF283FA4CF3A2FA40
:100510008CF3002BC6D0002A04BF04301A4612BA4E
:10052000B2FA82F2FDE8024500EBD2007047D1E951
:10053000002304F00305C4F100004FEAC50514F0E0
:10054000040F91F840F00CFA05F562EA05021CBFB1
:1005500063EA050362464FF00004A9E703685A0006
:100560004CBF43F0004323F000431844704700BFE2
:100570002DE9F84329B34F1E044615463E464FF079
:10058000000808EB060101EBD171491004EBC10929
:100590004846FFF7E3FF0346C80008308F42204477
:1005A00009D0AB4209D8FFF7D9FF0138A8420AD2D7
:1005B00001F10108E5E7AB4205D9884501D04E1E9F
:1005C000DFE74FF000094846BDE8F883012807D06F
:1005D000022807D0044B00280CBF184600207047A3
:1005E0000248704702487047910C0008950C0008BB
:1005F000990C000830B5234B83B004468D1E3BB3E5
:1006000001A92846AFF30080E8B101992A46FFF717
:10061000AFFF0146B8B1FFF7A1FF4B68A064012B03
:100620002BD0002B01F1040023DBFFF797FF002301
:10063000C4E913030368002B10DBFFF78FFF206171
:10064000002003B030BD00230920236103B030BD7A
:100650000D490E48091AC9100191D7E7C3F3036089
:10066000FFF7B4FF0028206114BF0020092003B069
:1006700030BD0123C4E91303DCE700232361052017
:10068000DFE700BF00000000283600084035000802
:100690000368DA0710B5044606D49B0700F148004A
:1006A00009D500F04BFC2368590709D51A070ED568
:1006B000DB0613D510BD00F039FC23685907F5D4CB
:1006C00004F1D00000F042FC23681A07F0D404F5CE
:1006D000A87000F043FC2368DB06EBD404F5E87057
:1006E000BDE8104000F07EBC0346006800B118442D
:1006F000704700BF09207047704700BF70B50446BF
:100700000E46316C2046FFF775FF054688B9336CFD
:100710006361324623692146012098470828F0D0BA
:10072000072806D12846316CFFF7E6FF301D00F0A0
:10073000F1FB00F065FE00BF2DE9F0470D1D0646F8
:1007400014460FCDADF5727D0DF10C0CACE80F0029
:100750000FCDACE80F000FCDACE80F0095E80F000F
:1007600002ADF768D6F818808CE80F0000232B60E4
:1007700021E02B6C73614FF4F07229467AA8FFF7E1
:1007800087FD33697AAA314650469847889BCDE960
:10079000005821466B648146334632460120B847F3
:1007A0000446E8B94FF4F0727AA92846FFF770FDC5
:1007B000B9F1080F1BD1296C3046FFF71BFF093434
:1007C0005FFA84FA81460028D3D0AB6B4AF010015F
:1007D000CDE9005832466B6401203346B84708B172
:1007E0004FF0090948460DF5727DBDE8F087B9F173
:1007F000070FF5D12046296CFFF77EFF03A800F014
:1008000089FB00BF406C7047F0B5CB6B0B640E1DCD
:100810000F4605460FCEF9B001AC0FC40FCE0FC482
:100820000FCE0FC496E80F004FF0FF3684E80F009C
:10083000009606E02B696A46294698470828044630
:1008400008D110992846FFF7D5FE0028F2D00920DC
:1008500079B0F0BD6846FFF71BFF062CF7D139468B
:100860002846FFF74BFF00BF30B4DD6BC1608261EB
:1008700019461D64002230BC5EE700BF70B5C66833
:1008800043690B64AEB903690A4604460D46014646
:1008900002209847072805D008280FD1294620466E
:1008A000FFF72CFF3046296CFFF726FF281D00F0CC
:1008B00031FB0122FFF740FF00F0A2FD00F0A0FD98
:1008C000C2681AB1CA6B0A64002235E79CE700BF10
:1008D000704700BF836801460BB10120184770477D
:1008E000012912D009D873B90F2A0CD800EB820263
:1008F00018465368009A136070470339012994BF62
:10090000012002207047022070470846704700BF50
:1009100010B584B0002303AC0A4600941946FFF7D3
:10092000DFFF039804B010BD012912D009D873B9B4
:100930000F2A0CD800EB8200009A12684260184619
:1009400070470339012994BF01200220704702201B
:1009500070470846704700BF10B584B0002303AC51
:10096000039200940A461946FFF7DEFF04B010BD5B
:10097000F0B5D36B1364151D8C4606460FCDADF54F
:100980000F7D17AC0FC40FCD0FC40FCD0FC495E86A
:100990000F004FF0FF3784E80F006546169710E010
:1009A000FFF7DAFF294616A8B047034616AA69469C
:1009B000082083B9049B9847052804460CD00928D1
:1009C00009D026996846FFF715FE03466A460C21B2
:1009D00016A8002BE4D0092416A8FFF759FE2046DC
:1009E0000DF50F7DF0BD00BF2DE9F04FCC6C89B047
:1009F0000D4654F8041B0694174600F003081E46E3
:100A0000002B79D00B0CDAB209048DF81D300223CB
:100A100004EB820405918DF81C302B6DB8F1020FA8
:100A200008BFAC6B13F001030CD0384605A900F0E9
:100A300073FB18B9082009B0BDE8F08F092009B090
:100A4000BDE8F08FD4F800A0BAF1000FEDD001930B
:100A500000F008030293022E4AD0B4F800A0B4F8C4
:100A600002900434AA6C29F0010B0F2138469344FC
:100A7000FFF74EFF834539D82AF001025A448242DB
:100A800094BF002001204FEA490303F002030AF05B
:100A9000010A43EA0A03012B49D0022B32D0002B72
:100AA000CCD1B8F1000F02D0002840F0CD80043442
:100AB000D4F800A0BAF1000FCDD105A9384600F056
:100AC0002BFB0028BAD1019B002BB3D00F21384655
:100AD000FFF71EFF0E2102463846FFF73DFF38465E
:100AE0006A4A0F21FFF738FF0720A8E70020CAE76E
:100AF000D4F804900834B5E7090203230591ADF852
:100B00001C308AE7236823F0004BB8F1000F45D171
:100B100028B1029A002A5CD0BBF1000F74D0002BE0
:100B200000DA04340BF1010B04EB8B04C0E7B8F1DD
:100B3000000F19D1B0B1D4E90023991C4FEAD27249
:100B40003FF47CAF05F158010133049100F090802F
:100B5000201DFFF7C9FD04AB01462846AFF3008016
:100B600000285BD10834A3E70D213846D5F8209042
:100B7000FFF7CEFE8145F5D1AB6A9C42F2D120460B
:100B8000FFF7ECFC0F2102463846FFF7E5FE38463A
:100B90002A460021FFF7E0FE072050E70D213846E6
:100BA000D5F82090FFF7B4FE814501D02368B6E761
:100BB000AB6A9C42FAD104220021C5E90B12A318AA
:100BC000C5F828B06B6323688B4259DB012301937E
:100BD000A8E705F15803CDF80C8004F1040AB046EB
:100BE00091461E460DE00496FFF77EFD04AB0146DC
:100BF00000222846AFF3008009F101090AF1040A36
:100C0000E8B9D9455046EED138460D21FFF780FEB0
:100C1000049B2862C5E90934062010E781460D21AE
:100C20003846FFF775FEB9F1020F286225D12B4631
:100C3000049A43F82C2F6B62AC620620FFE646460E
:100C40002368DDF80C806AE72046FFF787FC043450
:100C50000246AC6328461446AFF3008000283FF4F8
:100C6000EDAE384622460F21FFF776FE0720E6E676
:100C700038460D21FFF74CFE2862049B6B62DBE7D0
:100C80000BF1010004EB80007AE700BF00000000D8
:100C90000023A9E60123A7E60223A5E62DE9F043F8
:100CA0000646C3B015461C46042900F2B980DFE8A9
:100CB00001F09A53B7290300002C40F0B180102AAC
:100CC00000F2AE800368D80600F1F38020AF38460A
:100CD00000F092F9B06B0023012404FA03F22A42D7
:100CE000014604D051F8042B47F82320084601336D
:100CF000042BF2D1B063384600F074F9002043B001
:100D0000BDE8F083032C40F08B8094B204EB1243D7
:100D1000102B4FEA124500F2838003681F0700F191
:100D2000D08020AF384600F03BF907EBC501B56B2A
:100D300054B10B46E81A01EBC401E4001A5843F819
:100D4000042B8B42FAD125443846B56300F006F9EE
:100D5000002043B0BDE8F083012C4FEA124895B261
:100D60005AD0052C5CD108EB0509B9F1200F57D8F2
:100D7000B8F10F0F77D9A946002D40F08880B36BEA
:100D80006DB320AF4FF0000907EBC807043F03EB3A
:100D9000C50553F8041B47F8041FAB42F9D1B9F15C
:100DA000000F0FD06F464146102938BF102107EBC6
:100DB000C101843903EBC90553F8040B41F8040F52
:100DC000AB42F9D1012C00F08480B8F10F0FB5636C
:100DD00045D9B9F1000F02D0684600F0B7F80020FD
:100DE00043B0BDE8F083DCB9876B2346012094B2A1
:100DF00006F1040C00FA03F22242394604D051F8FD
:100E0000042B4CF823200F460133102BF2D115F49C
:100E10000050E4D1B76304E008EB0503102B03D9BD
:100E2000022043B0BDE8F083B8F10F0FF8D8336863
:100E3000DA0706D5304623F0030340F8483B00F0BC
:100E400079F820AF384600F075F8B36B002D99D1D2
:100E50001D460435B563384600F068F8BFE720A8A2
:100E600000F06CF8B5E7B9F1100F40D9A9F11009FD
:100E70003368D90708D523F00103304643F0020355
:100E800040F8483B00F05EF8B9F1000F32D033680B
:100E90005A0720D4B8F10F0F25D96F463846C8F14C
:100EA000100500F057F8002DB36B7FF77CAF20AF33
:100EB0006AE723F01003336006F5E87000F09CF851
:100EC00004E723F00803036000F5A87000F068F859
:100ED00027E720AFBDE7304623F0040340F8D03BBE
:100EE00000F038F8D6E720A800F02CF8D5E74FF04E
:100EF0000009BDE7B8F10F0F3FF641AF20AF38460C
:100F000000F020F8B36B002D7FF43CAF384600F0C2
:100F100015F864E700F1340191E838009C46A646D4
:100F20004CF8045D90E8FF0FE54600BD90EC210B06
:100F3000704700BF80EC210B704700BF90EC200B86
:100F4000704700BF80EC200B704700BFD0EC200B37
:100F5000704700BFC0EC200B704700BFF0EC0201EF
:100F6000F0EC0211F0EC0221F0EC0231F0EC024165
:100F7000F0EC0251F0EC0261F0EC0271F0EC028155
:100F8000F0EC0291F0EC02A1F0EC02B1F0EC02C145
:100F9000F0EC02D1F0EC02E1F0EC02F1704700BF9E
:100FA000E0EC0201E0EC0211E0EC0221E0EC0231A5
:100FB000E0EC0241E0EC0251E0EC0261E0EC027195
:100FC000E0EC0281E0EC0291E0EC02A1E0EC02B185
:100FD000E0EC02C1E0EC02D1E0EC02E1E0EC02F175
:100FE000704700BFB0FC0181B0FC0191B0FC01A1D1
:100FF000B0FC01B1704700BFA0FC0181A0FC0191D1
:10100000A0FC01A1A0FC01B1704700BFEC4600B5F7
:101010002DE900502DE9FF1F4FF000032DE90C00D2
:1010200001A9FFF7F1FBDDF840E012B0704700BF07
:10103000EC4600B52DE900502DE9FF1F4FF00003ED
:101040002DE90C0001A9FFF719FCDDF840E012B012
:10105000704700BFEC4600B52DE900502DE9FF1F99
:101060004FF000032DE90C0001A9FFF729FCDDF882
:1010700040E012B0704700BFEC4600B52DE90050CB
:101080002DE9FF1F4FF000032DE90C0001ABFFF726
:10109000EBFBDDF840E012B0704700BFEC4600B556
:1010A0002DE900502DE9FF1F4FF000032DE90C0042
:1010B00001AAFFF75DFCDDF840E012B0704700BF09
:1010C000027A7AB9437AA3B14268013B10B4437201
:1010D00013680321141D01721A024460026010BCDF
:1010E000180E70470368013A02721A020260180E65
:1010F0007047B020704700BF00B585B003AA002339
:10110000009219460C22FFF7EBFB039805B05DF83F
:1011100004FB00BFF0E700BF2DE9F043054685B0B2
:101120000E464FF000083046FFF7CAFFB0280446CD
:1011300000F0B280070620D500F0F003802B4DD0E0
:10114000902B36D0A02B60D0B02B74D0C02B00F0E9
:101150008B8000F0F803D02B0BD100F00702013296
:1011600042F40022052301212846FFF797FD0028BD
:10117000D9D0092005B0BDE8F0830DF10C0900239A
:1011800019468700CDF800900D222846FFF7A8FBEE
:10119000FFB2039BCDF80090043760064CBFDF1B05
:1011A000FF18002319460D2228460397FFF7BCFBC2
:1011B000B9E700F00D030D2BDBD003AF002300F0E7
:1011C0000F02194600972846FFF78AFB0023009775
:1011D00019460D222846FFF7A7FBA4E73046FFF784
:1011E0006FFF24022043B0F5004FC2D0040100235A
:1011F000A2B219462846FFF751FD0028B9D114F4D0
:10120000004F18BF4FF001088DE7C24302F00703FB
:101210004FF47F621A41010702F47F624FF000032E
:1012200048BF42F4804219462846FFF737FD0028A0
:101230003FF479AF9DE7B12833D0B22800F08B801E
:10124000B32839D000F0FC03B42B92D000F0070291
:101250000132012342F4002219462846FFF71EFD01
:1012600000283FF460AF84E7C62842D0C7284CD09E
:1012700000F0F803C02B5BD0C82860D0C9287FF4E9
:1012800078AF3046FFF71CFF020300F00F0002F4B6
:1012900070220130024365E7B8F1000F18D000203A
:1012A00068E73046FFF70CFF024600283FF461AFC5
:1012B00010F0F003D0D05CE73046FFF701FF0103E8
:1012C00000F00F0001F47021421C01230A43C3E720
:1012D00003AC43460E22414600942846FFF700FB2C
:1012E0000094284643460F224146FFF71DFB404627
:1012F00040E73046FFF7E4FE010300F00F0001F481
:101300007021421C03230A43A6E73046FFF7D8FEAC
:10131000024600283FF42DAF10F0F0037FF429AF10
:1013200004212846FFF7BAFC00283FF4FCAE20E772
:1013300000F00F020132032342F420228CE73046F2
:10134000FFF7BEFE00F0F00200F00F031032013391
:1013500043EA023206E700230DF10C090D2219467B
:10136000CDF800902846FFF7BBFA3046FFF7A8FEFD
:1013700002064FF002070CD5039B00F07F00B84037
:10138000034430460393FFF79BFE030607F107076C
:10139000F2D4039BCDF8009000F07F0403F50172B6
:1013A000BC400023144419460D2228460394FFF73D
:1013B000BBFAB8E610B5C26C84B0536803248DF84C
:1013C0000C401B0202F108040846D279019301A9DE
:1013D00002948DF80D20FFF79FFE04B010BD00BFF2
:1013E00008B5FFF797FE806C08BD00BF08B5FFF792
:1013F00091FEC06CC379023300EB830008BD00BFCF
:1014000008B5062000F08AF8012000F057F900BF67
:1014100010B58021044600F0B9F8606440B1031FA4
:1014200000227C3043F8042F8342FBD1002010BD02
:101430004FF0FF3010BD00BF436C0BB10020704770
:10144000E6E700BF1F2970B5054608D8436C16466D
:101450000C464BB153F8240043F8246070BD1622AB
:1014600002604FF0FF3070BDFFF7D2FF08B96B6C20
:10147000F0E74FF0FF3070BD1F2938B521D8426C1E
:1014800005460C466AB152F8213053B1012B16D0F3
:10149000591C10D00025204642F824509847284671
:1014A00038BD284600F070F8224601462846BDE8BF
:1014B000384000F055B816230360012038BD0020E5
:1014C00038BD162303604FF0FF3038BD1F2921D8E7
:1014D00038B5436C05460C4683B153F8242003EB22
:1014E00084034AB1511C10D0012A0CD0002520469B
:1014F0001D609047284638BD012038BDFFF788FFA2
:1015000028B96B6CE9E7032038BD022038BD4FF0E5
:10151000FF3038BD4FF0FF30704700BF024B01462F
:101520001868FFF7A9BF00BF00000020024B0A4661
:1015300001461868FFF786BF00000020034B1868BB
:10154000436C0BB10020704762E700BF0000002031
:10155000024B01461868FFF7B9BF00BF000000202A
:1015600038B50B46074C0546114618460023236044
:1015700000F08EF8431C00D038BD2368002BFBD050
:101580002B6038BD3406002000F07AB8F8B5CD1CC9
:1015900025F0030508350C2D38BF0C25002D064617
:1015A00033DBA94231D82A4F00F066F83A6852B1CD
:1015B00013685B1B04D43FE023685B1B29D52246DC
:1015C0005468002CF8D1796800293BD02946304670
:1015D00000F040F8431C28D0C41C24F00304A042AF
:1015E00005D0211A304600F035F801301DD02560B5
:1015F000304600F043F804F10B0020F00700231DF3
:10160000C21A01D01B1AA350F8BD0C223260002070
:10161000F8BD0B2B05D8A242636811D05360E7E7F1
:10162000144623601C442560E2E70C2330463360F7
:1016300000F024F80020F8BD0B2BF1D853681446B5
:101640003B60D5E7304600F005F87860BEE700BFA4
:101650008C00002038B5074C00230546084623605F
:1016600000F01EF8431C00D038BD2368002BFBD0CF
:101670002B6038BD34060020704700BF704700BFA4
:10168000024B58221A604FF0FF307047340600209A
:10169000024B58221A604FF0FF307047340600208A
:1016A000044A05491368002B08BF0B461844106014
:1016B000184670479400002038060020FEE700BF5F
:1016C0007047FEE7FEE7FEE7FEE7704708B5024811
:1016D00001F016F808BD00BFF005002000B583B08A
:1016E0000D4B9A6942F001029A619A6902F0010277
:1016F0000092009ADA6942F08052DA61DB6903F005
:1017000080530193019B00220F216FF0010000F034
:1017100099FF03B05DF804FB0010024000B589B0EA
:101720000023039304930593069307930268144BD5
:101730009A4202D009B05DF804FB03F5E633DA699A
:1017400042F40032DA61DA6902F400320192019A5D
:101750005A6942F400325A615B6903F40033029320
:10176000029B0C2303930223049300230593069307
:101770000723079303A94FF0904000F073FED9E7C9
:101780000044004000B589B0014600221A2000F054
:1017900059FF1A2000F08AFF144B9A6942F4802204
:1017A0009A619B6903F480230193019B02A903A81A
:1017B00000F0BAFC00F0A2FC0D4BA3FB00239B0C35
:1017C000013B0C480C4A026040F2E732C2604360C1
:1017D00000230361836001F0C9F818B1012009B04A
:1017E0005DF804FB034800F071FFF8E700100240C9
:1017F00083DE1B43F00500200048014008B5074A7E
:10180000136843F010031360032000F009FF002069
:10181000FFF7B8FFFFF762FF002008BD002002407D
:10182000034A1168034B1B780B441360704700BFD9
:101830003006002064000020014B1868704700BF8C
:101840003006002038B50446FFF7F6FF0546B4F130
:10185000FF3F02D0044B1B781C44FFF7EDFF401BF9
:10186000A042FAD338BD00BF64000020002800F079
:10187000038370B582B00446036813F0010F3DD0B6
:10188000C74B5B6803F00C03042B20D0C44B5B6890
:1018900003F00C03082B13D06368B3F5803F6AD0C4
:1018A000002B40F08D8003F1804303F504331A6868
:1018B00022F480321A601A6822F480221A605FE0F3
:1018C000B74B5B6803F4C033B3F5803FE4D14FF40A
:1018D000003393FAA3F3B24B19684FF4003393FA31
:1018E000A3F3B3FA83F303F01F03012202FA03F315
:1018F0000B4203D06368002B00F0C082236813F012
:10190000020F00F0C080A64B5B6813F00C0F00F0D4
:101910009780A34B5B6803F00C03082B00F08880D2
:10192000E368002B00F0ED80012292FAA2F3B3FAF3
:1019300083F303F1845303F584139B001A60FFF7CC
:101940007BFF0546022393FAA3F3954B1968022304
:1019500093FAA3F3B3FA83F303F01F03012202FA0D
:1019600003F30B4240F0BE80FFF766FF401B0228E6
:10197000E8D903208BE28A4A136843F4803313606A
:101980006368002B36D0FFF757FF05464FF400334E
:1019900093FAA3F3824B19684FF4003393FAA3F33D
:1019A000B3FA83F303F01F03012202FA03F30B429D
:1019B000A4D1FFF741FF401B6428E7D9032066E26A
:1019C000B3F5A02F09D0764B1A6822F480321A6042
:1019D0001A6822F480221A60D2E703F18043A3F54B
:1019E0003C331A6842F480221A601A6842F480324A
:1019F0001A60C5E7FFF720FF05464FF4003393FA5E
:101A0000A3F3674B19684FF4003393FAA3F3B3FAC7
:101A100083F303F01F03012202FA03F30B423FF4A6
:101A20006DAFFFF709FF401B6428E6D903202EE2C3
:101A30005B4B5B6803F4C033B3F5004F7FF470AFCA
:101A4000022393FAA3F3564B1968022393FAA3F3E4
:101A5000B3FA83F303F01F03012202FA03F30B42EC
:101A600003D0E368934240F00B824D48036823F0B3
:101A7000F8032169F82292FAA2F2B2FA82F201FA8C
:101A800002F213430360236813F0080F00F08C8008
:101A90006369002B5CD0012191FAA1F2B2FA82F2C3
:101AA000404B13449B001960FFF7C6FE0546022316
:101AB00093FAA3F293FAA3F293FAA3F2384A516A83
:101AC00093FAA3F3B3FA83F303F01F03012202FA9C
:101AD00003F30B4268D1FFF7AFFE401B0228E6D9A3
:101AE0000320D4E12E48036823F0F8032169F8228B
:101AF00092FAA2F2B2FA82F201FA02F213430360FE
:101B0000C1E7012393FAA3F3B3FA83F303F18453F8
:101B100003F584139B0000221A60FFF78DFE054633
:101B2000022393FAA3F31E4B1968022393FAA3F33B
:101B3000B3FA83F303F01F03012202FA03F30B420B
:101B4000A1D0FFF779FE401B0228E9D903209EE1CE
:101B5000012292FAA2F2B2FA82F2124B13449B00D3
:101B600000221A60FFF768FE0546022393FAA3F2EB
:101B700093FAA3F293FAA3F2094A516A93FAA3F3F0
:101B8000B3FA83F303F01F03012202FA03F30B42BB
:101B90000AD0FFF751FE401B0228E6D9032076E168
:101BA0000010024020819010236813F0040F00F011
:101BB000A980BB4BDB6913F0805F20D1B84BDA6999
:101BC00042F08052DA61DB6903F080530193019B9C
:101BD0000125B44B1B6813F4807F12D0A368012B3E
:101BE00023D073BB03F1804303F504331A6A22F058
:101BF00001021A621A6A22F004021A621AE000252F
:101C0000E7E7A84A136843F480731360FFF714FEF4
:101C10000646A44B1B6813F4807FDFD1FFF70CFE50
:101C2000801B6428F5D9032031E19D4A136A43F0F3
:101C300001031362A368002B3CD0FFF7FDFD0646AD
:101C40002EE0052B09D0964B1A6A22F001021A6287
:101C50001A6A22F004021A62ECE7914B1A6A42F007
:101C600004021A621A6A42F001021A62E2E70223CF
:101C700093FAA3F38A4B596A022393FAA3F3B3FAB4
:101C800083F303F01F03012202FA03F3194238D150
:101C9000FFF7D2FD801B41F28833984200F2F280B8
:101CA000022393FAA3F293FAA3F3002BDFD07C4B29
:101CB000196AE1E7FFF7C0FD064618E0022393FA30
:101CC000A3F3774B596A022393FAA3F3B3FA83F38E
:101CD00003F01F03012202FA03F3194211D0FFF7A8
:101CE000ABFD801B41F28833984200F2CD80022385
:101CF00093FAA3F293FAA3F3002BDFD0684B196A8F
:101D0000E1E7B5BBA369002B00F0C080644A5268CC
:101D100002F00C02082A00F09980022B2FD04FF01D
:101D2000807393FAA3F3B3FA83F303F1845303F5B7
:101D300084139B0000221A60FFF77EFD04464FF0DB
:101D4000007393FAA3F3564B19684FF0007393FA9C
:101D5000A3F3B3FA83F303F01F03012202FA03F3A0
:101D6000194271D0FFF768FD001B0228E7D9032054
:101D70008DE04B4AD36923F08053D361C2E74FF023
:101D8000807393FAA3F3B3FA83F303F1845303F557
:101D900084139B0000221A60FFF74EFD05464FF0AA
:101DA000007393FAA3F33E4B19684FF0007393FA54
:101DB000A3F3B3FA83F303F01F03012202FA03F340
:101DC000194206D0FFF738FD401B0228E7D903204F
:101DD0005DE0334AD36A23F00F03616A0B43D36299
:101DE000536823F47613216AE06901430B4353607F
:101DF0004FF0807393FAA3F3B3FA83F303F18453A0
:101E000003F584139B0001221A60FFF715FD0446B9
:101E10004FF0007393FAA3F3214B19684FF000734E
:101E200093FAA3F3B3FA83F303F01F03012202FA38
:101E300003F3194206D1FFF7FFFC001B0228E7D984
:101E4000032024E0002022E0002020E0012B20D00D
:101E5000134A5368D06A03F4C031E26991421AD13F
:101E600003F47013226A934217D100F00F00636AE3
:101E7000984219D100200AE001207047012006E0B5
:101E8000012004E0032002E0032000E0002002B073
:101E900070BD0120FBE70120F9E70120F7E700BF53
:101EA00000100240007000400120F0E7174B5B6813
:101EB00003F00C02082A01D01548704703F4701192
:101EC0004FF4701292FAA2F2B2FA82F221FA02F2FE
:101ED0001049885C0D4AD26A02F00F020F2191FA74
:101EE000A1F1B1FA81F1CA400B498A5C13F4803F39
:101EF00005D0074BB3FBF2F300FB03F07047044B34
:101F0000B3FBF2F300FB03F0704700BF0010024088
:101F100000127A00BC340008CC340008002800F01D
:101F2000BE8070B50D460446614B1B6803F0070385
:101F30008B420BD25E4A136823F007030B431360F6
:101F4000136803F007038B4240F0AB80236813F063
:101F5000020F06D0574A536823F0F003A1680B43E1
:101F60005360236813F0010F5AD06368012B2DD002
:101F7000022B40D0022292FAA2F24E4A10680222AC
:101F800092FAA2F2B2FA82F202F01F02012101FAE1
:101F900002F2104200F0878046494A6822F00302AC
:101FA00013434B60FFF748FC0646424B5B6803F067
:101FB0000C036268B3EB820F32D0FFF73DFC801B4D
:101FC00041F288339842F0D9032067E04FF40032A1
:101FD00092FAA2F2374A10684FF4003292FAA2F253
:101FE000B2FA82F202F01F02012101FA02F2024269
:101FF000D2D1012052E04FF0007292FAA2F22D4AA3
:1020000010684FF0007292FAA2F2B2FA82F202F075
:102010001F02012101FA02F21042BDD101203DE070
:10202000234B1B6803F00703AB420AD9204A13680D
:1020300023F007032B431360136803F00703AB423D
:1020400033D1236813F0040F06D01A4A536823F4DF
:10205000E063E1680B435360236813F0080F07D077
:10206000144A536823F46053216943EAC10353605F
:10207000FFF71CFF0F4B5B6803F0F003F02292FAAE
:10208000A2F2B2FA82F2D3400B4AD35CD8400B4B97
:1020900018600B4B1868FFF775FB002070BD01201E
:1020A00070470120FAE70120F8E70120F6E700BFBA
:1020B0000020024000100240DC3400086C000020C8
:1020C00068000020014B1868704700BF6C000020BA
:1020D00008B5FFF7F7FF074B5B6803F4E0634FF4C5
:1020E000E06292FAA2F2B2FA82F2D340024AD35CE0
:1020F000D84008BD00100240EC34000808B5FFF7D6
:10210000E1FF074B5B6803F460534FF4605292FAAF
:10211000A2F2B2FA82F2D340024AD35CD84008BDA0
:1021200000100240EC3400080F2303600B4B5A6888
:1021300002F0030242605A6802F0F00282605A68BC
:1021400002F4E062C2605B68DB0803F4E0630361F1
:10215000034B1B6803F007030B607047001002403D
:1021600000200240F0B583B00446036813F4803FBA
:1021700048D0A14BDB6913F0805F40F021819E4B7A
:10218000DA6942F08052DA61DB6903F0805301932F
:10219000019B0125994B1B6813F4807F00F012818D
:1021A000954B1B6A13F4407322D0626802F44072AC
:1021B0009A421DD09048016A21F440764FF4803352
:1021C00093FAA3F2B2FA82F28D4F3A4492004FF0A2
:1021D000010CC2F800C093FAA3F3B3FA83F33B44B3
:1021E0009B0000221A60066211F0010F40F0FF8090
:1021F000814A136A23F4407361680B431362002D14
:1022000040F02381236813F0010F06D07A4A136B44
:1022100023F00303A1680B431363236813F0020F39
:1022200006D0754A136B23F44033E1680B43136304
:10223000236813F0040F06D06F4A136B23F4402376
:1022400021690B431363236813F0200F06D06A4AF9
:10225000136B23F01003E1690B431363236813F43A
:10226000003F06D0644A536823F48003616D0B433A
:102270005360236813F0400F06D05F4A136B23F0BE
:102280002003216A0B431363236813F4802F06D0C5
:10229000594A136B23F04003616A0B4313632368AD
:1022A00013F0080F06D0544A136B23F440136169EE
:1022B0000B431363236813F0100F06D04E4A136BC1
:1022C00023F44003A1690B431363236813F4007FD5
:1022D00006D0494A536823F40003216B0B43536033
:1022E000236813F0800F06D0434AD36A23F4F873AF
:1022F000A16A0B43D362236813F4807F06D03E4A61
:10230000D36A23F47853E16A0B43D362236813F44E
:10231000805F06D0384A136B23F48073616B0B43E4
:102320001363236813F4005F06D0334A136B23F45E
:102330000073216C0B431363236813F4801F06D0D2
:102340002D4A136B23F08073A16B0B431363236837
:1023500013F4001F06D0284A136B23F00073E16BBF
:102360000B431363236813F4800F06D0224A136BC8
:1023700023F48063616C0B431363236813F4000F31
:1023800006D01D4A136B23F40063A16C0B43136347
:10239000236813F0807F06D0174A136B23F4005391
:1023A000E16C0B431363236813F0007F54D0124A8F
:1023B000136B23F40043216D0B43136300204CE0A7
:1023C0000025E7E60D4A136843F480731360FFF7B6
:1023D00033FA0646094B1B6813F4807F7FF4E0AEA6
:1023E000FFF72AFA801B6428F4D9032035E0FFF7B1
:1023F00023FA06461FE000BF0010024000700040B4
:1024000000819010022393FAA3F3154B596A02231B
:1024100093FAA3F3B3FA83F303F01F03012202FA42
:1024200003F30B427FF4E4AEFFF706FA801B41F2A0
:10243000883398420ED8022393FAA3F293FAA3F3B7
:10244000002BDFD0064B196AE1E7D36923F08053F4
:10245000D361D7E6032000E0002003B0F0BD00BF49
:1024600000100240F0B482B0002236E0062400E002
:102470000024B4403C430235624E46F82540624C8D
:102480002568DC4325EA03064F6817F4803F01D036
:1024900043EA05065C4D2E606D6804EA05064F6848
:1024A00017F4003F01D043EA0506574D6E60AD6852
:1024B00004EA05064F6817F4801F01D043EA0506B9
:1024C000514DAE60ED682C404E6816F4001F01D0EF
:1024D00043EA05044C4BDC6001320B6833FA02F42A
:1024E00000F08C80012494402340F5D04D68022DEB
:1024F00001D0122D10D1D608083650F826C002F0AF
:102500000705AF000F25BD402CEA050C0D69BD4045
:1025100045EA0C0540F82650D0F800C056000325C7
:10252000B540EF432CEA050C4D6805F00305B540B6
:1025300045EA0C0505604D6805F1FF3CBCF1010F53
:1025400003D9112D01D0122D10D1856807EA050C91
:10255000CD68B54045EA0C058560456825EA040468
:102560004D68C5F30015954025434560C468274074
:102570008C68B4403C43C4604C6814F0805FABD0BE
:10258000224CA56945F00105A561A46904F0010488
:102590000194019C9508AE1C1A4C54F8267002F068
:1025A0000304A6000F24B44027EA0407B0F1904FBB
:1025B0003FF45EAF164CA04216D004F58064A042F2
:1025C00014D004F58064A04212D004F58064A042C7
:1025D00010D004F58064A0420ED004F58064A042BF
:1025E0003FF444AF072444E7012442E7022440E7D4
:1025F00003243EE704243CE705243AE702B0F0BC9C
:10260000704700BF0000014000040140001002407C
:10261000000400480AB18161704781627047000080
:10262000074AD36823F4E0631B041B0C000200F488
:10263000E060034343F0BF6343F40033D36070476B
:1026400000ED00E030B4174BDB68C3F30223C3F1A5
:102650000704042C28BF04241D1D062D18D9033B94
:102660004FF0FF3505FA04F421EA0401994005FA18
:1026700003F322EA0303194300280BDB0901C9B263
:1026800000F1604000F5614080F8001330BC7047F5
:102690000023E5E700F00F000901C9B2024B19540D
:1026A000F4E700BF00ED00E014ED00E0002807DBD8
:1026B00000F01F02400901239340024A42F82030F3
:1026C000704700BF00E100E0704700000268D36877
:1026D00043F00103D36002689168064B0B40062B60
:1026E00006D0B3F5803F03D0136843F001031360B5
:1026F000002070470700010070477047704770471F
:1027000010B5044603681A6912F0020F11D0DA6896
:1027100012F0020F0DD06FF002021A61012303774D
:1027200003689B6913F0030F79D0FFF7E6FF0023DE
:10273000237723681A6912F0040F12D0DA6812F0B6
:10274000040F0ED06FF004021A610223237723686E
:102750009B6913F4407F68D02046FFF7CEFF00232B
:10276000237723681A6912F0080F12D0DA6812F082
:10277000080F0ED06FF008021A6104232377236834
:10278000DB6913F0030F57D02046FFF7B6FF002395
:10279000237723681A6912F0100F12D0DA6812F04A
:1027A000100F0ED06FF010021A61082323772368F0
:1027B000DB6913F4407F46D02046FFF79EFF0023DD
:1027C000237723681A6912F0010F03D0DA6812F038
:1027D000010F3FD123681A6912F0800F03D0DA6825
:1027E00012F0800F3DD123681A6912F4807F03D064
:1027F000DA6812F0800F3BD123681A6912F0400F9B
:1028000003D0DA6812F0400F39D123681A6912F048
:10281000200F03D0DA6812F0200F37D110BDFFF778
:102820006BFF2046FFF76AFF81E72046FFF764FF52
:102830002046FFF763FF92E72046FFF75DFF204643
:10284000FFF75CFFA3E72046FFF756FF2046FFF7A0
:1028500055FFB4E76FF001021A61204600F0ECFD6D
:10286000B8E76FF080021A61204600F09AF8BAE7E4
:102870006FF480721A61204600F094F8BCE76FF0A4
:1028800040021A612046FFF73AFFBEE76FF02002D0
:102890001A61204600F084F8C0E700000368324A5D
:1028A000904212D0B0F1804F0FD0A2F594329042F6
:1028B0000BD002F58062904207D002F5963290422A
:1028C00003D002F5E052904203D123F070034A682E
:1028D0001343254A90421ED0B0F1804F1BD0A2F581
:1028E0009432904217D002F58062904213D002F5E4
:1028F000963290420FD002F5406290420BD002F522
:102900008062904207D002F58062904203D002F5C7
:102910000062904203D123F44073CA68134323F04A
:1029200080034A69134303608B68C3620B68836248
:102930000D4B984213D003F5006398420FD003F576
:10294000406398420BD003F58063984207D003F5AB
:102950008063984203D003F50063984201D10B696C
:102960000363012343617047002C0140B0B110B5EF
:10297000044690F83D3063B1022384F83D3021468F
:1029800051F8040BFFF78AFF012384F83D30002043
:1029900010BD80F83C30FFF797FEEDE7012070474F
:1029A000704770477047000038B504468368026975
:1029B000134342691343C269134301680868A54A77
:1029C000024013430B602268536823F44053E168CC
:1029D0000B435360A269236A1A4321688B6823F46E
:1029E000306313438B6023689B4A93420DD09B4A0C
:1029F00093421CD09A4A93423ED09A4A93424ED078
:102A0000994A93425ED010251FE0984B1B6B03F050
:102A10000303032B09D8DFE803F00204066801254D
:102A200013E0042511E008250FE010250DE08F4B81
:102A30001B6B03F44033B3F5003F58D017D8002B7D
:102A400057D0B3F5803F56D10425E369B3F5004F65
:102A50006DD0082D00F2F680DFE815F0B700CC004D
:102A6000D600F400E100F400F400F400EB00B3F54C
:102A7000403F42D10225E8E77C4B1B6B03F4402327
:102A8000B3F5002F3BD005D8DBB3B3F5802F3AD197
:102A90000425DAE7B3F5402F37D10225D5E7734B8C
:102AA0001B6B03F44013B3F5001F30D005D883B37C
:102AB000B3F5801F2FD10425C7E7B3F5401F2CD1F4
:102AC0000225C2E7694B1B6B03F44003B3F5000F0B
:102AD00025D005D82BB3B3F5800F24D10425B4E756
:102AE000B3F5400F21D10225AFE70225ADE7082558
:102AF000ABE70025A9E71025A7E71025A5E70825DE
:102B0000A3E70025A1E710259FE710259DE70825ED
:102B10009BE7002599E7102597E7102595E70825FD
:102B200093E7002591E710258FE710258DE7082D05
:102B300048D8DFE805F0051D2847334747473E00E2
:102B4000FFF7C6FA6268530803EB4003B3FBF2F3E6
:102B50009BB2A3F110014FF6EF72914275D89AB271
:102B600022F00F02C3F3420313432268D3603CE018
:102B7000FFF7C4FA6268530803EB4003B3FBF2F3B8
:102B80009BB20025E5E76268530803F5740303F57B
:102B90001053B3FBF2F39BB20025DAE7FFF786F997
:102BA0006268530803EB4003B3FBF2F39BB20025CA
:102BB000CFE76268530803F58033B3FBF2F39BB2AF
:102BC0000025C6E701250023C3E7FFF781FA626805
:102BD00000EB5203B3FBF2F39BB2A3F110014FF6EB
:102BE000EF72914233D82268D36000232366636674
:102BF000284638BDFFF782FA626800EB5203B3FB48
:102C0000F2F39BB20025E8E76268530803F5F4038A
:102C100003F59053B3FBF2F39BB20025DDE7FFF71A
:102C200045F9626800EB5203B3FBF2F39BB2002557
:102C3000D3E76268530803F50043B3FBF2F39BB29A
:102C40000025CAE701250023C7E70125CDE70125B7
:102C5000CBE700BFF369FFEF0038014000440040BC
:102C600000480040004C004000500040001002406E
:102C7000436A13F0010F06D00268536823F400334F
:102C8000816A0B435360436A13F0020F06D0026857
:102C9000536823F48033C16A0B435360436A13F0D3
:102CA000040F06D00268536823F48023016B0B43A2
:102CB0005360436A13F0080F06D00268536823F488
:102CC0000043416B0B435360436A13F0100F06D06F
:102CD0000268936823F48053816B0B439360436ACB
:102CE00013F0200F06D00268936823F40053C16BE1
:102CF0000B439360436A13F0400F0AD00268536895
:102D000023F48013016C0B435360036CB3F5801FF5
:102D10000BD0436A13F0800F06D00268536823F487
:102D20000023816C0B43536070470268536823F49F
:102D3000C003416C0B435360EBE72DE9F8430546B4
:102D40000F4616469946DDF820802C68E46937EA7C
:102D500004030CBF01240024B4423CD1B8F1FF3F6E
:102D6000F3D0FEF769FDA0EB0900404521D8B8F18A
:102D7000000F1ED02B681A6812F0040FE5D0DA6934
:102D800012F4006FE1D04FF400621A622A681368EF
:102D900023F4D07313602A68936823F001039360CF
:102DA00020236B67AB67EB67002385F87030032047
:102DB00012E02A68136823F4D07313602A689368BA
:102DC00023F00103936020236B67AB67002385F832
:102DD0007030032000E00020BDE8F8832DE9F041C9
:102DE00082B01E46436F202B55D104460D469046B7
:102DF000002954D0002A54D090F87030012B52D0C2
:102E0000012380F870300023C36721234367FEF756
:102E100013FD0746A4F85080A4F85280A368B3F5C8
:102E2000805F02D04FF0000814E0236913B14FF027
:102E300000080FE0A84600250CE038F8023B2268A5
:102E4000C3F308031385B4F8522092B2013A92B248
:102E5000A4F85220B4F852309BB273B100963B46AE
:102E6000002280212046FFF768FFF0B9002DE4D052
:102E7000236815F8012B1A85E5E700963B460022EA
:102E800040212046FFF759FF88B9202363670023BC
:102E900084F8703000E0022002B0BDE8F08101202B
:102EA000FAE70120F8E70220F6E70320F4E7032021
:102EB000F2E730B583B004460023C367FEF7BCFCDD
:102EC000054623681B6813F0080F0CD123681B68A4
:102ED00013F0040F15D120236367A367002084F843
:102EE000700003B030BD6FF07E43009303460022B4
:102EF0004FF400112046FFF720FF0028E6D0032002
:102F0000EFE76FF07E4300932B4600224FF48001E1
:102F10002046FFF712FF0028DDD00320E1E768B369
:102F200010B50446436F03B3242363672268136814
:102F300023F0010313602046FFF736FD012813D06C
:102F4000636ABBB92268536823F4904353602268D4
:102F5000936823F02A0393602268136843F0010307
:102F600013602046FFF7A5FF10BD80F87030FEF714
:102F7000D5FBD9E72046FFF77BFEE3E7012070474A
:102F8000054BD3F8882042F47002C3F888204FF034
:102F900000629A60704700BF00ED00E043684B603C
:102FA0009A688A6051609960086103680133036020
:102FB00070470369416882688A60416851605A6855
:102FC000824206D0002202611A68013A1A6018682B
:102FD000704782685A60F5E7084B1B681B6823B985
:102FE000074B4FF0FF321A607047044B1B68DB68D9
:102FF000DB685A68024B1A60704700BF9C000020D3
:1030000010050020F8B53A4B1B68002B65D1394BF1
:103010001D6801351D60C5B9374B1B681B6843B17E
:103020004FF0500383F31188BFF36F8FBFF34F8FBF
:10303000FEE7314A1168314B186810601960304A58
:10304000136801331360FFF7C7FF2E4B1B68AB42B9
:103050000CD900242C4B1B68DB6A03EB83039A001A
:103060002A4B9B58012B3DD901243BE0002416E05C
:10307000244B4FF0FF321A60ECE7224A1360E9E775
:1030800003EB83039A00394620481044FFF786FF7C
:10309000F26A1D4B1B68DB6A9A4200D30124164B6F
:1030A0001B681B68002BE3D0134B1B68DB68DE68D2
:1030B00073689D42E1D3371D3846FFF77AFFB36A44
:1030C0001BB106F11800FFF774FFF36A104A12688B
:1030D0009342D5D90E4A1360D2E70E4A13680133E2
:1030E000136000240C4B1B6803B101242046F8BD7B
:1030F00008050020180500209C000020A0000020EA
:10310000140500201005002098000020A4000020D5
:103110000C050020040500201C050020204B1B6826
:103120001BB1204B01221A6070471E4B00221A600F
:103130001D4B1B6803EB83018A001C498A585AB94E
:103140000BB1013BF6E74FF0500383F31188BFF357
:103150006F8FBFF34F8FFEE710B403EB8300820045
:103160000A4450684068506003EB8304A200144690
:103170000832114488420DD003EB830291000B4AC0
:103180000A445268D1680A4A1160074A13605DF820
:10319000044B70474068054A22445060ECE700BF8A
:1031A000080500201C0500200C050020A4000020BC
:1031B0009800002000000000000000000000000057
:1031C000074B19680868B0E8F04F80F30988BFF32F
:1031D0006F8F4FF0000080F311887047AFF30080CD
:1031E0009800002000000000000000000000000027
:1031F000EFF30980BFF36F8F154B1A681EF0100FA5
:1032000008BF20ED108A20E9F04F10602DE9090079
:103210004FF0500080F31188BFF34F8FBFF36F8FD3
:10322000FFF77CFF4FF0000080F3118809BC19689C
:103230000868B0E8F04F1EF0100F08BFB0EC108A1D
:1032400080F30988BFF36F8F704700BFAFF3008032
:103250009800002008B54FF0500383F31188BFF3A6
:103260006F8FBFF34F8FFFF7CDFE18B1034B4FF0B9
:1032700080521A60002383F3118808BD04ED00E03A
:1032800010B58AB000240594069407940894099414
:10329000204B5A6942F400225A615A6902F4002212
:1032A0000192019A5A6942F480025A615A6902F401
:1032B00080020292029A5A6942F400325A615A69B3
:1032C00002F400320392039A5A6942F480225A614E
:1032D0005B6903F480230493049B224620214FF072
:1032E0009040FFF797F94FF4005305930A4B06936C
:1032F000079405A90948FFF7B5F820230593012392
:1033000006930794089405A94FF09040FFF7AAF898
:103310000AB010BD00100240000021100008004853
:1033200008B50948094B03604FF416434360002376
:103330008360C36003610C2242618361C3610362E5
:103340004362FFF7ECFD08BD70050020004400401B
:1033500030B5A7B000241D941E942194179418949E
:1033600019941A941B945822214601A8FDF72AF8B3
:1033700002251C9501231F931023209322954FF4BF
:10338000004323934FF4E013249325941CA8FEF7E5
:103390006DFA0F231793189519944FF480631A93BD
:1033A0001B94294617A8FEF7B9FD0195049401A8BE
:1033B000FEF7D8FE27B030BD38B5FEF71FFAFFF78D
:1033C000C7FFFFF75DFFFFF7ABFF174D174B2C460D
:1033D0000FCB07C424F8023B1B0C23702846FDF7D3
:1033E0004FF84FF0FF3382B229461148FFF7F6FC41
:1033F0000D4C104A234607CA03C31A802046FDF726
:103400003FF84FF0FF3382B221460948FFF7E6FC50
:103410004FF09042536983F0200353614FF47A7068
:10342000FEF710FAE4E700BF20050020F43400089E
:10343000700500200435000808B50268034B9A4265
:1034400000D008BDFEF7ECF9FBE700BF00480140E3
:10345000DFF834D0002103E00C4B5B5843500431BB
:103460000B480C4B42189A42F6D30B4A02E0002359
:1034700042F8043B094B9A42F9D3FFF781FDFCF770
:10348000E3FEFFF799FFFEE7000001203036000859
:10349000000000207000002070000020380600208E
:1034A000FEE70000F8B500BFF8BC08BC9E467047B8
:0C34B000F8B500BFF8BC08BC9E46704791
:1034BC0002030405060708090A0B0C0D0E0F101069
:1034CC000102030405060708090A0B0C0D0E0F1068
:1034DC0000000000000000000102030406070809B8
:1034EC00000000000102030448656C6C6F20576FEC
:1034FC00726C64210D0A0000496E206C6F6F702194
:04350C000A000000B1
:1035100008B10181B0B000840000000008B1018151
:10352000B0B000840000000008B10181B0B0008498
:103530000000000008B10181B0B00084000000006C
:103540001CD0FF7F01000000ACD0FF7FB0A902803B
:1035500040D1FF7FB0B0A88090D1FF7F0100000074
:103560009CD1FF7FB0B0AA80D0D1FF7FAE71B28076
:1035700094D2FF7F0100000090D2FF7FAB3F3880E4
:10358000E8D2FF7F01000000F4D2FF7FB0B0AA8034
:1035900030D3FF7F01000000D8D3FF7FAB0EB28095
:1035A00048D4FF7FB0AF0880E8D6FF7F010000005D
:1035B000ECD6FF7FAD3F02805CD9FF7F01000000A9
:1035C00038DBFF7F008404804CDBFF7F01000000BC
:1035D00048DBFF7FB0AD0480DCDDFF7FB0A8038057
:1035E00000DEFF7F44FFFF7F04DEFF7F48FFFF7F99
:1035F00010DEFF7F0100000088FCFF7FB0A809807B
:1036000020FDFF7F0CFFFF7F48FDFF7FB0A92680D4
:10361000A8FDFF7FA908B18020FEFF7F00FFFF7F8C
:0836200030FEFF7F01000000F5
:04362800290200086B
:04362C00010200088F
:103630000400002000000000000000000000000066
:10364000000000000000000000000000000000007A
:10365000000000000000000000000000000000006A
:10366000000000000000000000000000000000005A
:10367000000000000000000000000000000000004A
:10368000000000000000000000000000000000003A
:1036900000000000010000001000000000127A008D
:04000005080034516A
:00000001FF
